:0E0000000C94D7000C9400000C9400000C949B
:10000E0000000C9400000C9400000C9400000C9462
:10001E0000000C9400000C9400000C9400000C9452
:10002E000D010C9400000C9400000C9400000C9434
:10003E0000000C9400000C9400000C9400000C9432
:10004E0000000C9400001027E80364000A00010071
:10005E00001000011000010066756C6C0061766185
:10006E00696C61626C65007B2263617273223A2552
:10007E00642C226361706163697479223A25642C61
:10008E0022617661696C61626C65223A25642C226C
:10009E00737461747573223A222573222C2265764D
:1000AE00656E74223A222573227D0D0A0052583A4B
:1000BE00006F70656E5F676174655F696E006D617C
:1000CE006E75616C5F696E006F70656E5F676174EF
:1000DE00655F6F7574006D616E75616C5F6F7574C1
:1000EE0000436172733A2532642F2532642020203A
:1000FE0020002A2A2A2046554C4C202A2A2A202023
:10010E002000467265653A2532642020202020208A
:10011E002000656E7465720064656E6965640065C5
:10012E0078697400536D617274205061726B696EE0
:10013E00670053797374656D20526561647900624E
:10014E006F6F740001002D4E414E00494E46000067
:10015E000500600166000A0065016B0004006F0176
:10016E00BB0003007301B8000D007601BF000A004A
:10017E008301CC000E008D01D6000B009B01E40024
:10018E000600A60120010700AC0126010500B301FF
:10019E002D010500B8014D010100E10152010000E1
:1001AE00F894EE27ECBBF1E0FBBFEBBFE5BF8DE0B3
:1001BE00A2E0BB27ED938A95E9F780E094E0A0E6F4
:1001CE00ED930197E9F7EEE5F1E0859195910097B2
:1001DE0061F0A591B59105901590BF01F0010590C4
:1001EE000D920197E1F7FB01F0CFEFE5EDBFE4E0F3
:1001FE00EEBFC0E6D1E00C94D702E0E0E0BDE3E351
:10020E00E9B9E8E9EAB9E6E8E0BD0895AA93EA9308
:10021E00FA93EFB7EA931A931CB1E091DE01E03046
:10022E0041F51A3011F01D3091F4A091DD01A1308D
:10023E0068F0E091DD01F0E0E354FE4FA0E0A08312
:10024E00E1E0E093DE01E0E0E093DD0112C0A09179
:10025E00DD01AF3158F4E091DD01EF5FE093DD0198
:10026E00E150F0E0E354FE4F108303C0E0E0E09372
:10027E00DD011991E991EFBFF991E991A9911895D5
:10028E00AA935D9BFECFE881ECB9C5C0BA93AA9341
:10029E00A881B981EC91E03021F00E94FC04F0DFDE
:1002AE00F7CF0CC1BA93AA93EF97E1971A930A93DB
:1002BE000E940305EAE0F0E0EA1BFB0B8F010E94AF
:1002CE0003051A973CF0FE013296FA93EA93A0E6E4
:1002DE00B1E006C0FE013296FA93EA93A5E6B1E0CC
:1002EE000E94BF04FE013E96FA93EA93E5E7F0E022
:1002FE000E940805F8010E9473050E948005FE0108
:10030E007296662777270E948005FE01EA57FF4FF7
:10031E000190F081E02D662777270E94800584E109
:10032E000E948B046896DE011E96B0DF198108814B
:10033E00EF96E5960895BA93AA93AFE6B1E0A6DFDD
:10034E00A881B981A3DFA3E7B1E0A0DFE881F9813D
:10035E00FA93EA93A6E7B1E00E94E504309729F0FC
:10036E000E941905A3E8B1E00EC0E881F981FA9365
:10037E00EA93ADE8B1E00E94E504309729F00E94BF
:10038E002005ABE9B1E08EDF99C0AA9A83E08A9589
:10039E00F1F7AA9888EC90E00197F1F70895AA93E7
:1003AE00E881E17011F4AC9801C0AC9AE881E69551
:1003BE00E17011F4AD9801C0AD9AE881E695E6952D
:1003CE00E17011F4AE9801C0AE9AE881E695E6951B
:1003DE00E695E17011F4AF9801C0AF9AD6DF1BC05D
:1003EE00AA93E881E295EF70AE2FD9DFE881EF7026
:1003FE00AE2FD5DF10C0AA93A898A998A881F0DFD8
:10040E00A2E006C0AA93A89AA998A881E9DFA1E064
:10041E00B0E00E94610521960895A09AA19AA29A31
:10042E00A49AA59AA69AA79A0E942705A898A99871
:10043E00AA98A3E0B4DFA5E0B0E00E946105A3E0B6
:10044E00AEDF8CE291E00197F1F7A3E0A8DFA2E026
:10045E00A6DFA8E2D0DFACE0CEDFA6E0CCDFA1E0E5
:10046E00CADFA2E099C0A1E0C6DFA2E095C0AA93C0
:10047E00E881E03019F4A981A05802C0A981A054E6
:10048E00BADF1CC0BA93AA93A881B981EC91E0306F
:10049E0021F00E94FC04B6DFF7CF10C0BA93AA93E6
:1004AE00E881F981E491E03049F0E881F9813196F3
:1004BE00E883F9833197A491A5DFF2CF22960895B0
:1004CE000E9403051A971CF0C19AC09802C0C198E9
:1004DE00C09A08956197E0E0EA93A0E0C8DFFE01BC
:1004EE00FA93EA93EFEEF0E00E94080588E00E948E
:1004FE008B042C96DE01C6DFE0E0EA93A1E0B7DFC5
:10050E000E9403051A9724F0A0E0B1E0C7DF17C0E0
:10051E00FE01FA93EA93E0E1F1E0FA93EA930E9486
:10052E000305EAE0F0E0EA1BFB0B0E9473050E9454
:10053E00800584E00E948B042896DE01A3DF61967D
:10054E0008950E9403051A975CF4AFEDB1E00E9486
:10055E002B050E9419050E943105A6EAB1E002C0E2
:10056E00ACEAB1E09FDEC89BFECF15C00E9403052A
:10057E000E94850574F4AFEDB1E0ED91FD913197D8
:10058E00FE93EE930E9420050E943105A3EBB1E08D
:10059E0089DEC99BFECFA8ECB0E00E9461050895EC
:1005AE00E0E0EABBE3E0EBBBEFE0E7BBE0E0E8BB9B
:1005BE00E4BBE5BBE2E0E1BBE0E0E2BB1EDE2DDF2B
:1005CE0052DFE0E0EA93A0E052DFA2E3B1E066DFA3
:1005DE00E0E0EA93A1E04BDFA0E4B1E05FDFA0ED45
:1005EE00B7E00E9461053FDF0E943105A8EBB1E044
:1005FE0059DE7894E091DE01E03031F0ADEBB1E000
:10060E009ADEE0E0E093DE01C89904C00E9427055F
:10061E00C89B97DFC99904C00E942705C99BA6DF16
:10062E00AAE0B0E00E946105E5CFFFCFBA93AA938E
:10063E001A930A93AA81BB8112960E94780530976D
:10064E0029F1AA81BB8114960E9478058F013097FB
:10065E0061F00230E0E01E0780F0F80131978F0163
:10066E00AA81BB811496ED93FC93AA81BB8112964D
:10067E000E942B053197AC81A083AA81BB810E9479
:10068E007805FF2312F00E942B0506C0AA81BB81BC
:10069E00EFEFFFEFED93FC931981088125960895F6
:1006AE00BA93AA9326970E94890510E0AC85BD8562
:1006BE00E0E0F0E0ED93FC93EA89FB893196EA8B5A
:1006CE00FB8B3197E4912E2FE03009F415C1E12F09
:1006DE00E03039F4253211F411E002C00E943505E4
:1006EE000AC1E130A9F4253219F40E94350502C180
:1006FE0012E040E000E02D3211F401E0FCC02B329C
:10070E0011F44BE2F8C0203211F440E2F4C002C002
:10071E00E23039F450E013E0203311F40068EBC0FE
:10072E0003C0E33009F0E7C0203310F02A3308F09D
:10073E0007C0AAE05A9F502DE22FE0535E0FDBC098
:10074E00E22FE33649F40E943C05E889F989A48139
:10075E00AA930E944205CEC0E33741F40E943C05A5
:10076E000E9448050E94CC041E2F0AC0E03761F497
:10077E000E943C050E9448050E94D8041E2F086066
:10078E0002600F7730E034C0E43611F0E93611F430
:10079E00046002C0E53731F4E4E5F0E0EE83FF8358
:1007AE0015E00CC0E83511F4086003C0E83709F015
:1007BE00A1C0EEE5F0E0EE83FF8314E002FF14C06B
:1007CE000E943C050E945205AB85AA233AF4EA85A5
:1007DE00FB850E946F05EA87FB874DE2403011F0E2
:1007EE001F5F01C00B7F04C00E943C050E94520592
:1007FE0000FD11C0151778F407FF08C002FF04C0F2
:10080E000B7F242F115001C020E301C020E20E9473
:10081E0035055150EFCF312F01FF17C03030A1F009
:10082E0003FF06C0EE81FF812591EE83FF8305C095
:10083E00AE81BF812D91AE83BF830E9435055030AE
:10084E0009F051503150EACF4BC020E3EE81FF81C9
:10085E000E947C05E887F987EE81FF813296EE8350
:10086E00FF83E885F985AA85BB85AE17BF0750F0D3
:10087E002F5FA885B985EA85FB85EA1BFB0BEA8706
:10088E00FB87EFCF2A3328F003FF02C0295F01C098
:10089E00295D04FD1AC0213320F4A885B98511976E
:1008AE0009F409C0531710F000FF01C013C020E275
:1008BE0007FF0BC020E3006102FF07C00B7F4A93C6
:1008CE000E944205503009F051500E9435055030BB
:1008DE0009F051503150A885B985129708F0B5CF5F
:1008EE0000FF08C0503031F05150E0E2EA930E9410
:1008FE004205F8CF10E0E0CEAC85BD850E947805AC
:10090E000E94900564960895FF92F82E26970E94F5
:10091E008B050E945A05309719F4EFEFFFEF23C0B5
:10092E00DE0116960E946B058D010E945A05EE831C
:10093E00FF83E0E0E887E987DE011A960E946B05E7
:10094E000E947805FA93EA931A930A93EDE1F3E085
:10095E00FA93EA93DE011A96A3DE9F01AE81BF8160
:10096E00E0E0EC93F9010E9492052A96FF9008951B
:10097E00BA93AA93E991F991A991B991CD01619197
:10098E006D936623E1F7FC010895BA93AA93A9919A
:10099E00B991EE27FF276D91662311F03196FBCFAB
:1009AE000895BA93AA93AA27BB27E991F9910590C6
:1009BE00002011F01196FBCFFD010895BA93AA9372
:1009CE00AA81BB81CD01E881F9817191772311F460
:1009DE00FC0109C06D916717C1F30196DC01662316
:1009EE0091F7EE27FF2724960895A881B981ED91FE
:1009FE00A883B983AE2F0895A091DF01B091E001D5
:100A0E000895FA93EA93E091DF01F091E0010E94DC
:100A1E0073050E948005EAE0F0E060E070E00E945D
:100A2E0080050895C29AACEDB5E00E946105C298AA
:100A3E000895C39AACEDB5E00E946105C398089580
:100A4E00A2E3B0E00C946105ED91FD913196FE9319
:100A5E00EE9308950E9471020C9467022A93AD855D
:100A6E00BE85EF85F88909950895E889F989349747
:100A7E00E88BF98B0895AD85BE85EF85F8890995CC
:100A8E000895A889B98914960E947805EE83FF838C
:100A9E00AE81BF810895A889B98914960E94780500
:100AAE00EA87FB870895DE011C960E946B050E9463
:100ABE0078050895109639F0A89580ED97E0019786
:100ACE00F1F71197C9F708950024AF0DB01D0895E1
:100ADE00F195E195F04008956F2F660F660B762F16
:100AEE000895ED91FC91119708950590F491E02DE4
:100AFE0008957A936A93FA93EA93089500240A1656
:100B0E000B0608955A934A933A932A931A930A938B
:100B1E0008955D814C813B812A8119810881089558
:00000001FF
